{
  "contractName": "Airdrop",
  "abi": [
    {
      "inputs": [
        {
          "internalType": "address",
          "name": "_tokenAddr",
          "type": "address"
        }
      ],
      "stateMutability": "nonpayable",
      "type": "constructor"
    },
    {
      "anonymous": false,
      "inputs": [
        {
          "indexed": false,
          "internalType": "address",
          "name": "beneficiary",
          "type": "address"
        },
        {
          "indexed": false,
          "internalType": "uint256",
          "name": "amount",
          "type": "uint256"
        }
      ],
      "name": "EtherTransfer",
      "type": "event"
    },
    {
      "anonymous": false,
      "inputs": [
        {
          "indexed": true,
          "internalType": "address",
          "name": "previousOwner",
          "type": "address"
        },
        {
          "indexed": true,
          "internalType": "address",
          "name": "newOwner",
          "type": "address"
        }
      ],
      "name": "OwnershipTransferred",
      "type": "event"
    },
    {
      "inputs": [],
      "name": "owner",
      "outputs": [
        {
          "internalType": "address",
          "name": "",
          "type": "address"
        }
      ],
      "stateMutability": "view",
      "type": "function",
      "constant": true
    },
    {
      "inputs": [],
      "name": "renounceOwnership",
      "outputs": [],
      "stateMutability": "nonpayable",
      "type": "function"
    },
    {
      "inputs": [],
      "name": "tokenAddr",
      "outputs": [
        {
          "internalType": "address",
          "name": "",
          "type": "address"
        }
      ],
      "stateMutability": "view",
      "type": "function",
      "constant": true
    },
    {
      "inputs": [
        {
          "internalType": "address",
          "name": "newOwner",
          "type": "address"
        }
      ],
      "name": "transferOwnership",
      "outputs": [],
      "stateMutability": "nonpayable",
      "type": "function"
    },
    {
      "inputs": [
        {
          "internalType": "address[]",
          "name": "_recipients",
          "type": "address[]"
        },
        {
          "internalType": "uint256",
          "name": "_amount",
          "type": "uint256"
        }
      ],
      "name": "dropTokens",
      "outputs": [
        {
          "internalType": "bool",
          "name": "",
          "type": "bool"
        }
      ],
      "stateMutability": "nonpayable",
      "type": "function"
    },
    {
      "inputs": [
        {
          "internalType": "address[]",
          "name": "_recipients",
          "type": "address[]"
        },
        {
          "internalType": "uint256[]",
          "name": "_amount",
          "type": "uint256[]"
        }
      ],
      "name": "dropEther",
      "outputs": [
        {
          "internalType": "bool",
          "name": "",
          "type": "bool"
        }
      ],
      "stateMutability": "payable",
      "type": "function",
      "payable": true
    },
    {
      "inputs": [
        {
          "internalType": "address",
          "name": "newTokenAddr",
          "type": "address"
        }
      ],
      "name": "updateTokenAddress",
      "outputs": [],
      "stateMutability": "nonpayable",
      "type": "function"
    },
    {
      "inputs": [
        {
          "internalType": "address",
          "name": "beneficiary",
          "type": "address"
        }
      ],
      "name": "withdrawTokens",
      "outputs": [],
      "stateMutability": "nonpayable",
      "type": "function"
    },
    {
      "inputs": [
        {
          "internalType": "address payable",
          "name": "beneficiary",
          "type": "address"
        }
      ],
      "name": "withdrawEther",
      "outputs": [],
      "stateMutability": "nonpayable",
      "type": "function"
    }
  ],
  "bytecode": "0x608060405234801561001057600080fd5b506040516113463803806113468339818101604052602081101561003357600080fd5b8101908080519060200190929190505050600061005461013960201b60201c565b9050806000806101000a81548173ffffffffffffffffffffffffffffffffffffffff021916908373ffffffffffffffffffffffffffffffffffffffff1602179055508073ffffffffffffffffffffffffffffffffffffffff16600073ffffffffffffffffffffffffffffffffffffffff167f8be0079c531659141344cd1fd0a4f28419497f9722a3daafe3b4186f6b6457e060405160405180910390a35080600160006101000a81548173ffffffffffffffffffffffffffffffffffffffff021916908373ffffffffffffffffffffffffffffffffffffffff16021790555050610141565b600033905090565b6111f6806101506000396000f3fe6080604052600436106100865760003560e01c8063715018a611610059578063715018a6146102d05780638da5cb5b146102e7578063967d7f8814610328578063af933b571461040d578063f2fde38b1461045e57610086565b80633ff675141461008b57806349df728c146101ed5780635fbe4d1d1461023e5780636691461a1461027f575b600080fd5b6101d5600480360360408110156100a157600080fd5b81019080803590602001906401000000008111156100be57600080fd5b8201836020820111156100d057600080fd5b803590602001918460208302840111640100000000831117156100f257600080fd5b919080806020026020016040519081016040528093929190818152602001838360200280828437600081840152601f19601f8201169050808301925050505050505091929192908035906020019064010000000081111561015257600080fd5b82018360208201111561016457600080fd5b8035906020019184602083028401116401000000008311171561018657600080fd5b919080806020026020016040519081016040528093929190818152602001838360200280828437600081840152601f19601f8201169050808301925050505050505091929192905050506104af565b60405180821515815260200191505060405180910390f35b3480156101f957600080fd5b5061023c6004803603602081101561021057600080fd5b81019080803573ffffffffffffffffffffffffffffffffffffffff169060200190929190505050610718565b005b34801561024a57600080fd5b50610253610964565b604051808273ffffffffffffffffffffffffffffffffffffffff16815260200191505060405180910390f35b34801561028b57600080fd5b506102ce600480360360208110156102a257600080fd5b81019080803573ffffffffffffffffffffffffffffffffffffffff16906020019092919050505061098a565b005b3480156102dc57600080fd5b506102e5610a7d565b005b3480156102f357600080fd5b506102fc610bea565b604051808273ffffffffffffffffffffffffffffffffffffffff16815260200191505060405180910390f35b34801561033457600080fd5b506103f56004803603604081101561034b57600080fd5b810190808035906020019064010000000081111561036857600080fd5b82018360208201111561037a57600080fd5b8035906020019184602083028401116401000000008311171561039c57600080fd5b919080806020026020016040519081016040528093929190818152602001838360200280828437600081840152601f19601f82011690508083019250505050505050919291929080359060200190929190505050610c13565b60405180821515815260200191505060405180910390f35b34801561041957600080fd5b5061045c6004803603602081101561043057600080fd5b81019080803573ffffffffffffffffffffffffffffffffffffffff169060200190929190505050610e1f565b005b34801561046a57600080fd5b506104ad6004803603602081101561048157600080fd5b81019080803573ffffffffffffffffffffffffffffffffffffffff169060200190929190505050610f18565b005b60006104b961110a565b73ffffffffffffffffffffffffffffffffffffffff166104d7610bea565b73ffffffffffffffffffffffffffffffffffffffff1614610560576040517f08c379a00000000000000000000000000000000000000000000000000000000081526004018080602001828103825260208152602001807f4f776e61626c653a2063616c6c6572206973206e6f7420746865206f776e657281525060200191505060405180910390fd5b6000805b83518110156105a25761059384828151811061057c57fe5b60200260200101518361111290919063ffffffff16565b91508080600101915050610564565b50348111156105b057600080fd5b82518451146105be57600080fd5b60005b845181101561070c57600073ffffffffffffffffffffffffffffffffffffffff168582815181106105ee57fe5b602002602001015173ffffffffffffffffffffffffffffffffffffffff16141561061757600080fd5b84818151811061062357fe5b602002602001015173ffffffffffffffffffffffffffffffffffffffff166108fc85838151811061065057fe5b60200260200101519081150290604051600060405180830381858888f19350505050158015610683573d6000803e3d6000fd5b507f1853ca9dc0208799379313b2b43364e45db022f073c72648fbc206dc0bacbcdc8582815181106106b157fe5b60200260200101518583815181106106c557fe5b6020026020010151604051808373ffffffffffffffffffffffffffffffffffffffff1681526020018281526020019250505060405180910390a180806001019150506105c1565b50600191505092915050565b61072061110a565b73ffffffffffffffffffffffffffffffffffffffff1661073e610bea565b73ffffffffffffffffffffffffffffffffffffffff16146107c7576040517f08c379a00000000000000000000000000000000000000000000000000000000081526004018080602001828103825260208152602001807f4f776e61626c653a2063616c6c6572206973206e6f7420746865206f776e657281525060200191505060405180910390fd5b600160009054906101000a900473ffffffffffffffffffffffffffffffffffffffff1673ffffffffffffffffffffffffffffffffffffffff1663a9059cbb82600160009054906101000a900473ffffffffffffffffffffffffffffffffffffffff1673ffffffffffffffffffffffffffffffffffffffff166370a08231306040518263ffffffff1660e01b8152600401808273ffffffffffffffffffffffffffffffffffffffff16815260200191505060206040518083038186803b15801561088f57600080fd5b505afa1580156108a3573d6000803e3d6000fd5b505050506040513d60208110156108b957600080fd5b81019080805190602001909291905050506040518363ffffffff1660e01b8152600401808373ffffffffffffffffffffffffffffffffffffffff16815260200182815260200192505050602060405180830381600087803b15801561091d57600080fd5b505af1158015610931573d6000803e3d6000fd5b505050506040513d602081101561094757600080fd5b810190808051906020019092919050505061096157600080fd5b50565b600160009054906101000a900473ffffffffffffffffffffffffffffffffffffffff1681565b61099261110a565b73ffffffffffffffffffffffffffffffffffffffff166109b0610bea565b73ffffffffffffffffffffffffffffffffffffffff1614610a39576040517f08c379a00000000000000000000000000000000000000000000000000000000081526004018080602001828103825260208152602001807f4f776e61626c653a2063616c6c6572206973206e6f7420746865206f776e657281525060200191505060405180910390fd5b80600160006101000a81548173ffffffffffffffffffffffffffffffffffffffff021916908373ffffffffffffffffffffffffffffffffffffffff16021790555050565b610a8561110a565b73ffffffffffffffffffffffffffffffffffffffff16610aa3610bea565b73ffffffffffffffffffffffffffffffffffffffff1614610b2c576040517f08c379a00000000000000000000000000000000000000000000000000000000081526004018080602001828103825260208152602001807f4f776e61626c653a2063616c6c6572206973206e6f7420746865206f776e657281525060200191505060405180910390fd5b600073ffffffffffffffffffffffffffffffffffffffff1660008054906101000a900473ffffffffffffffffffffffffffffffffffffffff1673ffffffffffffffffffffffffffffffffffffffff167f8be0079c531659141344cd1fd0a4f28419497f9722a3daafe3b4186f6b6457e060405160405180910390a360008060006101000a81548173ffffffffffffffffffffffffffffffffffffffff021916908373ffffffffffffffffffffffffffffffffffffffff160217905550565b60008060009054906101000a900473ffffffffffffffffffffffffffffffffffffffff16905090565b6000610c1d61110a565b73ffffffffffffffffffffffffffffffffffffffff16610c3b610bea565b73ffffffffffffffffffffffffffffffffffffffff1614610cc4576040517f08c379a00000000000000000000000000000000000000000000000000000000081526004018080602001828103825260208152602001807f4f776e61626c653a2063616c6c6572206973206e6f7420746865206f776e657281525060200191505060405180910390fd5b60005b8351811015610e1457600073ffffffffffffffffffffffffffffffffffffffff16848281518110610cf457fe5b602002602001015173ffffffffffffffffffffffffffffffffffffffff161415610d1d57600080fd5b600160009054906101000a900473ffffffffffffffffffffffffffffffffffffffff1673ffffffffffffffffffffffffffffffffffffffff1663a9059cbb858381518110610d6757fe5b6020026020010151856040518363ffffffff1660e01b8152600401808373ffffffffffffffffffffffffffffffffffffffff16815260200182815260200192505050602060405180830381600087803b158015610dc357600080fd5b505af1158015610dd7573d6000803e3d6000fd5b505050506040513d6020811015610ded57600080fd5b8101908080519060200190929190505050610e0757600080fd5b8080600101915050610cc7565b506001905092915050565b610e2761110a565b73ffffffffffffffffffffffffffffffffffffffff16610e45610bea565b73ffffffffffffffffffffffffffffffffffffffff1614610ece576040517f08c379a00000000000000000000000000000000000000000000000000000000081526004018080602001828103825260208152602001807f4f776e61626c653a2063616c6c6572206973206e6f7420746865206f776e657281525060200191505060405180910390fd5b8073ffffffffffffffffffffffffffffffffffffffff166108fc479081150290604051600060405180830381858888f19350505050158015610f14573d6000803e3d6000fd5b5050565b610f2061110a565b73ffffffffffffffffffffffffffffffffffffffff16610f3e610bea565b73ffffffffffffffffffffffffffffffffffffffff1614610fc7576040517f08c379a00000000000000000000000000000000000000000000000000000000081526004018080602001828103825260208152602001807f4f776e61626c653a2063616c6c6572206973206e6f7420746865206f776e657281525060200191505060405180910390fd5b600073ffffffffffffffffffffffffffffffffffffffff168173ffffffffffffffffffffffffffffffffffffffff16141561104d576040517f08c379a000000000000000000000000000000000000000000000000000000000815260040180806020018281038252602681526020018061119b6026913960400191505060405180910390fd5b8073ffffffffffffffffffffffffffffffffffffffff1660008054906101000a900473ffffffffffffffffffffffffffffffffffffffff1673ffffffffffffffffffffffffffffffffffffffff167f8be0079c531659141344cd1fd0a4f28419497f9722a3daafe3b4186f6b6457e060405160405180910390a3806000806101000a81548173ffffffffffffffffffffffffffffffffffffffff021916908373ffffffffffffffffffffffffffffffffffffffff16021790555050565b600033905090565b600080828401905083811015611190576040517f08c379a000000000000000000000000000000000000000000000000000000000815260040180806020018281038252601b8152602001807f536166654d6174683a206164646974696f6e206f766572666c6f77000000000081525060200191505060405180910390fd5b809150509291505056fe4f776e61626c653a206e6577206f776e657220697320746865207a65726f2061646472657373a26469706673582212208bb5cb7dbef1fefbe4d2e696462bff9b9fcc533779b6387e10ec3da347f1543c64736f6c63430007060033",
  "immutableReferences": {},
  "source": "pragma solidity >=0.7.0;\nimport \"@openzeppelin/contracts/access/Ownable.sol\";\nimport \"@openzeppelin/contracts/math/SafeMath.sol\";\nimport \"./Token.sol\";\n\n\ncontract Airdrop is Ownable {\n    using SafeMath for uint;\n\n    address public tokenAddr;\n\n    event EtherTransfer(address beneficiary, uint amount);\n\n    constructor(address _tokenAddr) public {\n        tokenAddr = _tokenAddr;\n    }\n\n    function dropTokens(address[] memory _recipients, uint256 _amount) public onlyOwner returns (bool) {\n       \n        for (uint i = 0; i < _recipients.length; i++) {\n            require(_recipients[i] != address(0));\n            require(Token(tokenAddr).transfer(_recipients[i], _amount));\n        }\n\n        return true;\n    }\n\n    function dropEther(address[] memory _recipients, uint256[] memory _amount) public payable onlyOwner returns (bool) {\n        uint total = 0;\n\n        for(uint j = 0; j < _amount.length; j++) {\n            total = total.add(_amount[j]);\n        }\n\n        require(total <= msg.value);\n        require(_recipients.length == _amount.length);\n\n\n        for (uint i = 0; i < _recipients.length; i++) {\n            require(_recipients[i] != address(0));\n\n            payable(_recipients[i]).transfer(_amount[i]);\n\n            emit EtherTransfer(_recipients[i], _amount[i]);\n        }\n\n        return true;\n    }\n\n    function updateTokenAddress(address newTokenAddr) public onlyOwner {\n        tokenAddr = newTokenAddr;\n    }\n\n    function withdrawTokens(address beneficiary) public onlyOwner {\n        require(Token(tokenAddr).transfer(beneficiary, Token(tokenAddr).balanceOf(address(this))));\n    }\n\n    function withdrawEther(address payable beneficiary) public onlyOwner {\n        beneficiary.transfer(address(this).balance);\n    }\n}",
  "sourcePath": "/var/www/Practice/solidity/airdrop-contract/contracts/Airdrop.sol",
  "compiler": {
    "name": "solc",
    "version": "0.7.6+commit.7338295f.Emscripten.clang"
  },
  "schemaVersion": "3.4.1",
  "updatedAt": "2021-09-23T09:17:02.972Z",
  "networkType": "ethereum",
  "devdoc": {
    "kind": "dev",
    "methods": {
      "owner()": {
        "details": "Returns the address of the current owner."
      },
      "renounceOwnership()": {
        "details": "Leaves the contract without owner. It will not be possible to call `onlyOwner` functions anymore. Can only be called by the current owner. NOTE: Renouncing ownership will leave the contract without an owner, thereby removing any functionality that is only available to the owner."
      },
      "transferOwnership(address)": {
        "details": "Transfers ownership of the contract to a new account (`newOwner`). Can only be called by the current owner."
      }
    },
    "version": 1
  },
  "userdoc": {
    "kind": "user",
    "methods": {},
    "version": 1
  }
}