{
  "contractName": "Airdrop",
  "abi": [
    {
      "inputs": [
        {
          "internalType": "address",
          "name": "_tokenAddr",
          "type": "address"
        }
      ],
      "stateMutability": "nonpayable",
      "type": "constructor"
    },
    {
      "anonymous": false,
      "inputs": [
        {
          "indexed": false,
          "internalType": "address",
          "name": "beneficiary",
          "type": "address"
        },
        {
          "indexed": false,
          "internalType": "uint256",
          "name": "amount",
          "type": "uint256"
        }
      ],
      "name": "EtherTransfer",
      "type": "event"
    },
    {
      "anonymous": false,
      "inputs": [
        {
          "indexed": true,
          "internalType": "address",
          "name": "previousOwner",
          "type": "address"
        },
        {
          "indexed": true,
          "internalType": "address",
          "name": "newOwner",
          "type": "address"
        }
      ],
      "name": "OwnershipTransferred",
      "type": "event"
    },
    {
      "inputs": [],
      "name": "owner",
      "outputs": [
        {
          "internalType": "address",
          "name": "",
          "type": "address"
        }
      ],
      "stateMutability": "view",
      "type": "function",
      "constant": true
    },
    {
      "inputs": [],
      "name": "renounceOwnership",
      "outputs": [],
      "stateMutability": "nonpayable",
      "type": "function"
    },
    {
      "inputs": [],
      "name": "tokenAddr",
      "outputs": [
        {
          "internalType": "address",
          "name": "",
          "type": "address"
        }
      ],
      "stateMutability": "view",
      "type": "function",
      "constant": true
    },
    {
      "inputs": [
        {
          "internalType": "address",
          "name": "newOwner",
          "type": "address"
        }
      ],
      "name": "transferOwnership",
      "outputs": [],
      "stateMutability": "nonpayable",
      "type": "function"
    },
    {
      "inputs": [
        {
          "internalType": "address[]",
          "name": "_recipients",
          "type": "address[]"
        },
        {
          "internalType": "uint256[]",
          "name": "_amount",
          "type": "uint256[]"
        }
      ],
      "name": "dropTokens",
      "outputs": [
        {
          "internalType": "bool",
          "name": "",
          "type": "bool"
        }
      ],
      "stateMutability": "nonpayable",
      "type": "function"
    },
    {
      "inputs": [
        {
          "internalType": "address[]",
          "name": "_recipients",
          "type": "address[]"
        },
        {
          "internalType": "uint256[]",
          "name": "_amount",
          "type": "uint256[]"
        }
      ],
      "name": "dropEther",
      "outputs": [
        {
          "internalType": "bool",
          "name": "",
          "type": "bool"
        }
      ],
      "stateMutability": "payable",
      "type": "function",
      "payable": true
    },
    {
      "inputs": [
        {
          "internalType": "address",
          "name": "newTokenAddr",
          "type": "address"
        }
      ],
      "name": "updateTokenAddress",
      "outputs": [],
      "stateMutability": "nonpayable",
      "type": "function"
    },
    {
      "inputs": [
        {
          "internalType": "address",
          "name": "beneficiary",
          "type": "address"
        }
      ],
      "name": "withdrawTokens",
      "outputs": [],
      "stateMutability": "nonpayable",
      "type": "function"
    },
    {
      "inputs": [
        {
          "internalType": "address payable",
          "name": "beneficiary",
          "type": "address"
        }
      ],
      "name": "withdrawEther",
      "outputs": [],
      "stateMutability": "nonpayable",
      "type": "function"
    }
  ],
  "bytecode": "0x608060405234801561001057600080fd5b506040516113e33803806113e38339818101604052602081101561003357600080fd5b8101908080519060200190929190505050600061005461013960201b60201c565b9050806000806101000a81548173ffffffffffffffffffffffffffffffffffffffff021916908373ffffffffffffffffffffffffffffffffffffffff1602179055508073ffffffffffffffffffffffffffffffffffffffff16600073ffffffffffffffffffffffffffffffffffffffff167f8be0079c531659141344cd1fd0a4f28419497f9722a3daafe3b4186f6b6457e060405160405180910390a35080600160006101000a81548173ffffffffffffffffffffffffffffffffffffffff021916908373ffffffffffffffffffffffffffffffffffffffff16021790555050610141565b600033905090565b611293806101506000396000f3fe6080604052600436106100865760003560e01c80636691461a116100595780636691461a146103ee578063715018a61461043f5780638da5cb5b14610456578063af933b5714610497578063f2fde38b146104e857610086565b80633ff675141461008b57806349df728c146101ed5780635422bdb51461023e5780635fbe4d1d146103ad575b600080fd5b6101d5600480360360408110156100a157600080fd5b81019080803590602001906401000000008111156100be57600080fd5b8201836020820111156100d057600080fd5b803590602001918460208302840111640100000000831117156100f257600080fd5b919080806020026020016040519081016040528093929190818152602001838360200280828437600081840152601f19601f8201169050808301925050505050505091929192908035906020019064010000000081111561015257600080fd5b82018360208201111561016457600080fd5b8035906020019184602083028401116401000000008311171561018657600080fd5b919080806020026020016040519081016040528093929190818152602001838360200280828437600081840152601f19601f820116905080830192505050505050509192919290505050610539565b60405180821515815260200191505060405180910390f35b3480156101f957600080fd5b5061023c6004803603602081101561021057600080fd5b81019080803573ffffffffffffffffffffffffffffffffffffffff1690602001909291905050506107a2565b005b34801561024a57600080fd5b506103956004803603604081101561026157600080fd5b810190808035906020019064010000000081111561027e57600080fd5b82018360208201111561029057600080fd5b803590602001918460208302840111640100000000831117156102b257600080fd5b919080806020026020016040519081016040528093929190818152602001838360200280828437600081840152601f19601f8201169050808301925050505050505091929192908035906020019064010000000081111561031257600080fd5b82018360208201111561032457600080fd5b8035906020019184602083028401116401000000008311171561034657600080fd5b919080806020026020016040519081016040528093929190818152602001838360200280828437600081840152601f19601f8201169050808301925050505050505091929192905050506109ee565b60405180821515815260200191505060405180910390f35b3480156103b957600080fd5b506103c2610c0d565b604051808273ffffffffffffffffffffffffffffffffffffffff16815260200191505060405180910390f35b3480156103fa57600080fd5b5061043d6004803603602081101561041157600080fd5b81019080803573ffffffffffffffffffffffffffffffffffffffff169060200190929190505050610c33565b005b34801561044b57600080fd5b50610454610d26565b005b34801561046257600080fd5b5061046b610e93565b604051808273ffffffffffffffffffffffffffffffffffffffff16815260200191505060405180910390f35b3480156104a357600080fd5b506104e6600480360360208110156104ba57600080fd5b81019080803573ffffffffffffffffffffffffffffffffffffffff169060200190929190505050610ebc565b005b3480156104f457600080fd5b506105376004803603602081101561050b57600080fd5b81019080803573ffffffffffffffffffffffffffffffffffffffff169060200190929190505050610fb5565b005b60006105436111a7565b73ffffffffffffffffffffffffffffffffffffffff16610561610e93565b73ffffffffffffffffffffffffffffffffffffffff16146105ea576040517f08c379a00000000000000000000000000000000000000000000000000000000081526004018080602001828103825260208152602001807f4f776e61626c653a2063616c6c6572206973206e6f7420746865206f776e657281525060200191505060405180910390fd5b6000805b835181101561062c5761061d84828151811061060657fe5b6020026020010151836111af90919063ffffffff16565b915080806001019150506105ee565b503481111561063a57600080fd5b825184511461064857600080fd5b60005b845181101561079657600073ffffffffffffffffffffffffffffffffffffffff1685828151811061067857fe5b602002602001015173ffffffffffffffffffffffffffffffffffffffff1614156106a157600080fd5b8481815181106106ad57fe5b602002602001015173ffffffffffffffffffffffffffffffffffffffff166108fc8583815181106106da57fe5b60200260200101519081150290604051600060405180830381858888f1935050505015801561070d573d6000803e3d6000fd5b507f1853ca9dc0208799379313b2b43364e45db022f073c72648fbc206dc0bacbcdc85828151811061073b57fe5b602002602001015185838151811061074f57fe5b6020026020010151604051808373ffffffffffffffffffffffffffffffffffffffff1681526020018281526020019250505060405180910390a1808060010191505061064b565b50600191505092915050565b6107aa6111a7565b73ffffffffffffffffffffffffffffffffffffffff166107c8610e93565b73ffffffffffffffffffffffffffffffffffffffff1614610851576040517f08c379a00000000000000000000000000000000000000000000000000000000081526004018080602001828103825260208152602001807f4f776e61626c653a2063616c6c6572206973206e6f7420746865206f776e657281525060200191505060405180910390fd5b600160009054906101000a900473ffffffffffffffffffffffffffffffffffffffff1673ffffffffffffffffffffffffffffffffffffffff1663a9059cbb82600160009054906101000a900473ffffffffffffffffffffffffffffffffffffffff1673ffffffffffffffffffffffffffffffffffffffff166370a08231306040518263ffffffff1660e01b8152600401808273ffffffffffffffffffffffffffffffffffffffff16815260200191505060206040518083038186803b15801561091957600080fd5b505afa15801561092d573d6000803e3d6000fd5b505050506040513d602081101561094357600080fd5b81019080805190602001909291905050506040518363ffffffff1660e01b8152600401808373ffffffffffffffffffffffffffffffffffffffff16815260200182815260200192505050602060405180830381600087803b1580156109a757600080fd5b505af11580156109bb573d6000803e3d6000fd5b505050506040513d60208110156109d157600080fd5b81019080805190602001909291905050506109eb57600080fd5b50565b60006109f86111a7565b73ffffffffffffffffffffffffffffffffffffffff16610a16610e93565b73ffffffffffffffffffffffffffffffffffffffff1614610a9f576040517f08c379a00000000000000000000000000000000000000000000000000000000081526004018080602001828103825260208152602001807f4f776e61626c653a2063616c6c6572206973206e6f7420746865206f776e657281525060200191505060405180910390fd5b60005b8351811015610c0257600073ffffffffffffffffffffffffffffffffffffffff16848281518110610acf57fe5b602002602001015173ffffffffffffffffffffffffffffffffffffffff161415610af857600080fd5b600160009054906101000a900473ffffffffffffffffffffffffffffffffffffffff1673ffffffffffffffffffffffffffffffffffffffff1663a9059cbb858381518110610b4257fe5b6020026020010151858481518110610b5657fe5b60200260200101516040518363ffffffff1660e01b8152600401808373ffffffffffffffffffffffffffffffffffffffff16815260200182815260200192505050602060405180830381600087803b158015610bb157600080fd5b505af1158015610bc5573d6000803e3d6000fd5b505050506040513d6020811015610bdb57600080fd5b8101908080519060200190929190505050610bf557600080fd5b8080600101915050610aa2565b506001905092915050565b600160009054906101000a900473ffffffffffffffffffffffffffffffffffffffff1681565b610c3b6111a7565b73ffffffffffffffffffffffffffffffffffffffff16610c59610e93565b73ffffffffffffffffffffffffffffffffffffffff1614610ce2576040517f08c379a00000000000000000000000000000000000000000000000000000000081526004018080602001828103825260208152602001807f4f776e61626c653a2063616c6c6572206973206e6f7420746865206f776e657281525060200191505060405180910390fd5b80600160006101000a81548173ffffffffffffffffffffffffffffffffffffffff021916908373ffffffffffffffffffffffffffffffffffffffff16021790555050565b610d2e6111a7565b73ffffffffffffffffffffffffffffffffffffffff16610d4c610e93565b73ffffffffffffffffffffffffffffffffffffffff1614610dd5576040517f08c379a00000000000000000000000000000000000000000000000000000000081526004018080602001828103825260208152602001807f4f776e61626c653a2063616c6c6572206973206e6f7420746865206f776e657281525060200191505060405180910390fd5b600073ffffffffffffffffffffffffffffffffffffffff1660008054906101000a900473ffffffffffffffffffffffffffffffffffffffff1673ffffffffffffffffffffffffffffffffffffffff167f8be0079c531659141344cd1fd0a4f28419497f9722a3daafe3b4186f6b6457e060405160405180910390a360008060006101000a81548173ffffffffffffffffffffffffffffffffffffffff021916908373ffffffffffffffffffffffffffffffffffffffff160217905550565b60008060009054906101000a900473ffffffffffffffffffffffffffffffffffffffff16905090565b610ec46111a7565b73ffffffffffffffffffffffffffffffffffffffff16610ee2610e93565b73ffffffffffffffffffffffffffffffffffffffff1614610f6b576040517f08c379a00000000000000000000000000000000000000000000000000000000081526004018080602001828103825260208152602001807f4f776e61626c653a2063616c6c6572206973206e6f7420746865206f776e657281525060200191505060405180910390fd5b8073ffffffffffffffffffffffffffffffffffffffff166108fc479081150290604051600060405180830381858888f19350505050158015610fb1573d6000803e3d6000fd5b5050565b610fbd6111a7565b73ffffffffffffffffffffffffffffffffffffffff16610fdb610e93565b73ffffffffffffffffffffffffffffffffffffffff1614611064576040517f08c379a00000000000000000000000000000000000000000000000000000000081526004018080602001828103825260208152602001807f4f776e61626c653a2063616c6c6572206973206e6f7420746865206f776e657281525060200191505060405180910390fd5b600073ffffffffffffffffffffffffffffffffffffffff168173ffffffffffffffffffffffffffffffffffffffff1614156110ea576040517f08c379a00000000000000000000000000000000000000000000000000000000081526004018080602001828103825260268152602001806112386026913960400191505060405180910390fd5b8073ffffffffffffffffffffffffffffffffffffffff1660008054906101000a900473ffffffffffffffffffffffffffffffffffffffff1673ffffffffffffffffffffffffffffffffffffffff167f8be0079c531659141344cd1fd0a4f28419497f9722a3daafe3b4186f6b6457e060405160405180910390a3806000806101000a81548173ffffffffffffffffffffffffffffffffffffffff021916908373ffffffffffffffffffffffffffffffffffffffff16021790555050565b600033905090565b60008082840190508381101561122d576040517f08c379a000000000000000000000000000000000000000000000000000000000815260040180806020018281038252601b8152602001807f536166654d6174683a206164646974696f6e206f766572666c6f77000000000081525060200191505060405180910390fd5b809150509291505056fe4f776e61626c653a206e6577206f776e657220697320746865207a65726f2061646472657373a264697066735822122050a7e0cd9dcaec1525cf147063bde5c05f34cca8cd9e68a82867b4de4cee96f864736f6c63430007060033",
  "immutableReferences": {},
  "source": "pragma solidity >=0.7.0;\nimport \"@openzeppelin/contracts/access/Ownable.sol\";\nimport \"@openzeppelin/contracts/math/SafeMath.sol\";\nimport \"./Token.sol\";\n\n\ncontract Airdrop is Ownable {\n    using SafeMath for uint;\n\n    address public tokenAddr;\n\n    event EtherTransfer(address beneficiary, uint amount);\n\n    constructor(address _tokenAddr) public {\n        tokenAddr = _tokenAddr;\n    }\n\n    function dropTokens(address[] memory _recipients, uint256[] memory _amount) public onlyOwner returns (bool) {\n       \n        for (uint i = 0; i < _recipients.length; i++) {\n            require(_recipients[i] != address(0));\n            require(Token(tokenAddr).transfer(_recipients[i], _amount[i]));\n        }\n\n        return true;\n    }\n\n    function dropEther(address[] memory _recipients, uint256[] memory _amount) public payable onlyOwner returns (bool) {\n        uint total = 0;\n\n        for(uint j = 0; j < _amount.length; j++) {\n            total = total.add(_amount[j]);\n        }\n\n        require(total <= msg.value);\n        require(_recipients.length == _amount.length);\n\n\n        for (uint i = 0; i < _recipients.length; i++) {\n            require(_recipients[i] != address(0));\n\n            payable(_recipients[i]).transfer(_amount[i]);\n\n            emit EtherTransfer(_recipients[i], _amount[i]);\n        }\n\n        return true;\n    }\n\n    function updateTokenAddress(address newTokenAddr) public onlyOwner {\n        tokenAddr = newTokenAddr;\n    }\n\n    function withdrawTokens(address beneficiary) public onlyOwner {\n        require(Token(tokenAddr).transfer(beneficiary, Token(tokenAddr).balanceOf(address(this))));\n    }\n\n    function withdrawEther(address payable beneficiary) public onlyOwner {\n        beneficiary.transfer(address(this).balance);\n    }\n}",
  "sourcePath": "/home/hiren/www/work/crypto/token-airdrop-contract/contracts/Airdrop.sol",
  "compiler": {
    "name": "solc",
    "version": "0.7.6+commit.7338295f.Emscripten.clang"
  },
  "schemaVersion": "3.4.5",
  "updatedAt": "2022-02-19T12:20:47.395Z",
  "networkType": "ethereum",
  "devdoc": {
    "kind": "dev",
    "methods": {
      "owner()": {
        "details": "Returns the address of the current owner."
      },
      "renounceOwnership()": {
        "details": "Leaves the contract without owner. It will not be possible to call `onlyOwner` functions anymore. Can only be called by the current owner. NOTE: Renouncing ownership will leave the contract without an owner, thereby removing any functionality that is only available to the owner."
      },
      "transferOwnership(address)": {
        "details": "Transfers ownership of the contract to a new account (`newOwner`). Can only be called by the current owner."
      }
    },
    "version": 1
  },
  "userdoc": {
    "kind": "user",
    "methods": {},
    "version": 1
  }
}